{
  "contractName": "Gamble",
  "abi": [
    {
      "constant": true,
      "inputs": [
        {
          "name": "",
          "type": "address"
        }
      ],
      "name": "gamblers",
      "outputs": [
        {
          "name": "id",
          "type": "address"
        },
        {
          "name": "balance",
          "type": "uint256"
        }
      ],
      "payable": false,
      "stateMutability": "view",
      "type": "function"
    },
    {
      "constant": true,
      "inputs": [],
      "name": "owner",
      "outputs": [
        {
          "name": "",
          "type": "address"
        }
      ],
      "payable": false,
      "stateMutability": "view",
      "type": "function"
    },
    {
      "inputs": [],
      "payable": false,
      "stateMutability": "nonpayable",
      "type": "constructor"
    },
    {
      "anonymous": false,
      "inputs": [
        {
          "indexed": false,
          "name": "from",
          "type": "address"
        },
        {
          "indexed": false,
          "name": "to",
          "type": "address"
        },
        {
          "indexed": false,
          "name": "amount",
          "type": "uint256"
        }
      ],
      "name": "GameEndResult",
      "type": "event"
    },
    {
      "anonymous": false,
      "inputs": [
        {
          "indexed": false,
          "name": "num",
          "type": "uint256"
        }
      ],
      "name": "UpdateGamerNum",
      "type": "event"
    },
    {
      "anonymous": false,
      "inputs": [
        {
          "indexed": false,
          "name": "to",
          "type": "address"
        },
        {
          "indexed": false,
          "name": "num",
          "type": "uint256"
        }
      ],
      "name": "UpdateGamerBalance",
      "type": "event"
    },
    {
      "anonymous": false,
      "inputs": [
        {
          "indexed": false,
          "name": "from",
          "type": "address"
        },
        {
          "indexed": false,
          "name": "num",
          "type": "uint256"
        }
      ],
      "name": "OwnerReceivedTips",
      "type": "event"
    },
    {
      "constant": false,
      "inputs": [],
      "name": "joinGame",
      "outputs": [
        {
          "name": "totalGambler",
          "type": "uint256"
        }
      ],
      "payable": true,
      "stateMutability": "payable",
      "type": "function"
    },
    {
      "constant": true,
      "inputs": [
        {
          "name": "gamblerId",
          "type": "address"
        }
      ],
      "name": "checkGamblerBalance",
      "outputs": [
        {
          "name": "balance",
          "type": "uint256"
        }
      ],
      "payable": false,
      "stateMutability": "view",
      "type": "function"
    },
    {
      "constant": true,
      "inputs": [
        {
          "name": "gamblerId",
          "type": "address"
        }
      ],
      "name": "checkGamblerInGame",
      "outputs": [
        {
          "name": "joined",
          "type": "bool"
        }
      ],
      "payable": false,
      "stateMutability": "view",
      "type": "function"
    },
    {
      "constant": true,
      "inputs": [],
      "name": "getNumberOfGamer",
      "outputs": [
        {
          "name": "numGamer",
          "type": "uint256"
        }
      ],
      "payable": false,
      "stateMutability": "view",
      "type": "function"
    },
    {
      "constant": false,
      "inputs": [],
      "name": "quitGame",
      "outputs": [
        {
          "name": "totalGambler",
          "type": "uint256"
        }
      ],
      "payable": false,
      "stateMutability": "nonpayable",
      "type": "function"
    },
    {
      "constant": false,
      "inputs": [],
      "name": "withdraw",
      "outputs": [
        {
          "name": "amount",
          "type": "uint256"
        }
      ],
      "payable": false,
      "stateMutability": "nonpayable",
      "type": "function"
    },
    {
      "constant": false,
      "inputs": [],
      "name": "tipOwner",
      "outputs": [],
      "payable": true,
      "stateMutability": "payable",
      "type": "function"
    },
    {
      "constant": true,
      "inputs": [
        {
          "name": "gamblerId",
          "type": "address"
        }
      ],
      "name": "getLastFiveGameResult",
      "outputs": [
        {
          "name": "results",
          "type": "uint256[5]"
        }
      ],
      "payable": false,
      "stateMutability": "view",
      "type": "function"
    },
    {
      "constant": false,
      "inputs": [],
      "name": "startGame",
      "outputs": [],
      "payable": false,
      "stateMutability": "nonpayable",
      "type": "function"
    }
  ],
  "bytecode": "0x6060604052600060025560026003556000600560006101000a81548160ff021916908315150217905550341561003457600080fd5b336000806101000a81548173ffffffffffffffffffffffffffffffffffffffff021916908373ffffffffffffffffffffffffffffffffffffffff160217905550611a9e806100836000396000f3006060604052600436106100af576000357c0100000000000000000000000000000000000000000000000000000000900463ffffffff168063052ede57146100b45780630d8908dc146101015780633ccfd60b1461012a5780635c3539231461015357806383121772146101d35780638da5cb5b146101dd578063b4a6051214610232578063cabacd411461025b578063d4f77b1c146102ac578063d65ab5f2146102ca578063e2571574146102df575b600080fd5b34156100bf57600080fd5b6100eb600480803573ffffffffffffffffffffffffffffffffffffffff16906020019091905050610354565b6040518082815260200191505060405180910390f35b341561010c57600080fd5b61011461042d565b6040518082815260200191505060405180910390f35b341561013557600080fd5b61013d61043a565b6040518082815260200191505060405180910390f35b341561015e57600080fd5b61018a600480803573ffffffffffffffffffffffffffffffffffffffff169060200190919050506106b4565b604051808373ffffffffffffffffffffffffffffffffffffffff1673ffffffffffffffffffffffffffffffffffffffff1681526020018281526020019250505060405180910390f35b6101db6106f8565b005b34156101e857600080fd5b6101f06107c6565b604051808273ffffffffffffffffffffffffffffffffffffffff1673ffffffffffffffffffffffffffffffffffffffff16815260200191505060405180910390f35b341561023d57600080fd5b6102456107eb565b6040518082815260200191505060405180910390f35b341561026657600080fd5b610292600480803573ffffffffffffffffffffffffffffffffffffffff169060200190919050506109b7565b604051808215151515815260200191505060405180910390f35b6102b4610a5a565b6040518082815260200191505060405180910390f35b34156102d557600080fd5b6102dd610eef565b005b34156102ea57600080fd5b610316600480803573ffffffffffffffffffffffffffffffffffffffff16906020019091905050611630565b6040518082600560200280838360005b83811015610341578082015181840152602081019050610326565b5050505090500191505060405180910390f35b6000816000600160008373ffffffffffffffffffffffffffffffffffffffff1673ffffffffffffffffffffffffffffffffffffffff168152602001908152602001600020905060008160000160009054906101000a900473ffffffffffffffffffffffffffffffffffffffff1673ffffffffffffffffffffffffffffffffffffffff16141515156103e157fe5b600160008573ffffffffffffffffffffffffffffffffffffffff1673ffffffffffffffffffffffffffffffffffffffff1681526020019081526020016000206001015492505050919050565b6000600480549050905090565b6000806000336000600160008373ffffffffffffffffffffffffffffffffffffffff1673ffffffffffffffffffffffffffffffffffffffff168152602001908152602001600020905060008160000160009054906101000a900473ffffffffffffffffffffffffffffffffffffffff1673ffffffffffffffffffffffffffffffffffffffff16141515156104ca57fe5b60009350600092505b600480549050831015610564573373ffffffffffffffffffffffffffffffffffffffff1660048481548110151561050657fe5b906000526020600020900160009054906101000a900473ffffffffffffffffffffffffffffffffffffffff1673ffffffffffffffffffffffffffffffffffffffff1614156105575760019350610564565b82806001019350506104d3565b6000151584151514151561057457fe5b600160003373ffffffffffffffffffffffffffffffffffffffff1673ffffffffffffffffffffffffffffffffffffffff1681526020019081526020016000206001015494506000600160003373ffffffffffffffffffffffffffffffffffffffff1673ffffffffffffffffffffffffffffffffffffffff168152602001908152602001600020600101819055503373ffffffffffffffffffffffffffffffffffffffff166108fc869081150290604051600060405180830381858888f19350505050151561064157600080fd5b7fefad97b41cb2d292c37d4d71b9cb2cf828360d136d6707aa37fb40709287aefa336000604051808373ffffffffffffffffffffffffffffffffffffffff1673ffffffffffffffffffffffffffffffffffffffff1681526020018281526020019250505060405180910390a15050505090565b60016020528060005260406000206000915090508060000160009054906101000a900473ffffffffffffffffffffffffffffffffffffffff16908060010154905082565b6000809054906101000a900473ffffffffffffffffffffffffffffffffffffffff1673ffffffffffffffffffffffffffffffffffffffff166108fc349081150290604051600060405180830381858888f19350505050151561075957600080fd5b7f98856cad27959cf3255e8abcb5bd5ae2954f45d6b70c23449792b9013494c54c3334604051808373ffffffffffffffffffffffffffffffffffffffff1673ffffffffffffffffffffffffffffffffffffffff1681526020018281526020019250505060405180910390a1565b6000809054906101000a900473ffffffffffffffffffffffffffffffffffffffff1681565b60008060008060001515600560009054906101000a900460ff16151514151561081057fe5b6000925060009150600090505b6004805490508110156108b1573373ffffffffffffffffffffffffffffffffffffffff1660048281548110151561085057fe5b906000526020600020900160009054906101000a900473ffffffffffffffffffffffffffffffffffffffff1673ffffffffffffffffffffffffffffffffffffffff1614156108a457809250600191506108b1565b808060010191505061081d565b600115158215151415156108c157fe5b60046001600480549050038154811015156108d857fe5b906000526020600020900160009054906101000a900473ffffffffffffffffffffffffffffffffffffffff1660048481548110151561091357fe5b906000526020600020900160006101000a81548173ffffffffffffffffffffffffffffffffffffffff021916908373ffffffffffffffffffffffffffffffffffffffff160217905550600480548091906001900361097191906118e1565b5060048054905093507f70845e07d4e4690ab26533ce1bad7106422a8395116601454954702b62d7ec30846040518082815260200191505060405180910390a150505090565b60008060009150600090505b600480549050811015610a54578273ffffffffffffffffffffffffffffffffffffffff166004828154811015156109f657fe5b906000526020600020900160009054906101000a900473ffffffffffffffffffffffffffffffffffffffff1673ffffffffffffffffffffffffffffffffffffffff161415610a475760019150610a54565b80806001019150506109c3565b50919050565b6000806000610a6761190d565b336000806000600354600480549050101515610a7f57fe5b600160008573ffffffffffffffffffffffffffffffffffffffff1673ffffffffffffffffffffffffffffffffffffffff16815260200190815260200160002092506000915060008360000160009054906101000a900473ffffffffffffffffffffffffffffffffffffffff1673ffffffffffffffffffffffffffffffffffffffff16141515610b2657610b1f34846001015461177e90919063ffffffff16565b9150610b2a565b3491505b670de0b6b3a76400008210151515610b3e57fe5b600090505b600480549050811015610bcf573373ffffffffffffffffffffffffffffffffffffffff16600482815481101515610b7657fe5b906000526020600020900160009054906101000a900473ffffffffffffffffffffffffffffffffffffffff1673ffffffffffffffffffffffffffffffffffffffff1614151515610bc257fe5b8080600101915050610b43565b339650600160008873ffffffffffffffffffffffffffffffffffffffff1673ffffffffffffffffffffffffffffffffffffffff168152602001908152602001600020955060008660000160009054906101000a900473ffffffffffffffffffffffffffffffffffffffff1673ffffffffffffffffffffffffffffffffffffffff16141515610c7b57610c6e34876001015461177e90919063ffffffff16565b8660010181905550610d8c565b86856000019073ffffffffffffffffffffffffffffffffffffffff16908173ffffffffffffffffffffffffffffffffffffffff16815250503485602001818152505084600160008973ffffffffffffffffffffffffffffffffffffffff1673ffffffffffffffffffffffffffffffffffffffff16815260200190815260200160002060008201518160000160006101000a81548173ffffffffffffffffffffffffffffffffffffffff021916908373ffffffffffffffffffffffffffffffffffffffff160217905550602082015181600101556040820151816002019080519060200190610d6a929190611958565b506060820151816003019080519060200190610d87929190611958565b509050505b6000341115610e43577fefad97b41cb2d292c37d4d71b9cb2cf828360d136d6707aa37fb40709287aefa33600160008a73ffffffffffffffffffffffffffffffffffffffff1673ffffffffffffffffffffffffffffffffffffffff16815260200190815260200160002060010154604051808373ffffffffffffffffffffffffffffffffffffffff1673ffffffffffffffffffffffffffffffffffffffff1681526020018281526020019250505060405180910390a15b60048054806001018281610e5791906119a5565b9160005260206000209001600089909190916101000a81548173ffffffffffffffffffffffffffffffffffffffff021916908373ffffffffffffffffffffffffffffffffffffffff1602179055505060048054905097507f70845e07d4e4690ab26533ce1bad7106422a8395116601454954702b62d7ec30886040518082815260200191505060405180910390a15050505050505090565b610ef76119d1565b60008060008060008060008060009054906101000a900473ffffffffffffffffffffffffffffffffffffffff1673ffffffffffffffffffffffffffffffffffffffff163373ffffffffffffffffffffffffffffffffffffffff16141515610f5d57600080fd5b600354600480549050141515610f6f57fe5b6001600560006101000a81548160ff021916908315150217905550600354604051805910610f9a5750595b908082528060200260200182016040525097506000955042945060009350600093505b6004805490508410156110945761102260016110146064600488815481101515610fe357fe5b906000526020600020900160009054906101000a900473ffffffffffffffffffffffffffffffffffffffff1661179c565b61177e90919063ffffffff16565b888581518110151561103057fe5b9060200190602002018181525050611068888581518110151561104f57fe5b906020019060200201518861177e90919063ffffffff16565b9650611085670de0b6b3a76400008761177e90919063ffffffff16565b95508380600101945050610fbd565b600093505b6004805490508410156110f5576110c988858151811015156110b757fe5b90602001906020020151886003611841565b92508288858151811015156110da57fe5b90602001906020020181815250508380600101945050611099565b600093505b6004805490508410156115c35761111c6103e88761187a90919063ffffffff16565b9150611148888581518110151561112f57fe5b906020019060200201518361189590919063ffffffff16565b91506001600060048681548110151561115d57fe5b906000526020600020900160009054906101000a900473ffffffffffffffffffffffffffffffffffffffff1673ffffffffffffffffffffffffffffffffffffffff1673ffffffffffffffffffffffffffffffffffffffff1681526020019081526020016000206001015490506111f6826111e8670de0b6b3a7640000846118c890919063ffffffff16565b61177e90919063ffffffff16565b6001600060048781548110151561120957fe5b906000526020600020900160009054906101000a900473ffffffffffffffffffffffffffffffffffffffff1673ffffffffffffffffffffffffffffffffffffffff1673ffffffffffffffffffffffffffffffffffffffff168152602001908152602001600020600101819055506001600060048681548110151561128957fe5b906000526020600020900160009054906101000a900473ffffffffffffffffffffffffffffffffffffffff1673ffffffffffffffffffffffffffffffffffffffff1673ffffffffffffffffffffffffffffffffffffffff168152602001908152602001600020600201805480600101828161130491906119e5565b9160005260206000209001600084909190915055506001600060048681548110151561132c57fe5b906000526020600020900160009054906101000a900473ffffffffffffffffffffffffffffffffffffffff1673ffffffffffffffffffffffffffffffffffffffff1673ffffffffffffffffffffffffffffffffffffffff16815260200190815260200160002060030180548060010182816113a791906119e5565b9160005260206000209001600087909190915055507fb1bdfebfc039c2bae9b5e824f109cbeaf0b70f1d42e623f68d005e22f9fb8e2e336004868154811015156113ed57fe5b906000526020600020900160009054906101000a900473ffffffffffffffffffffffffffffffffffffffff1684604051808473ffffffffffffffffffffffffffffffffffffffff1673ffffffffffffffffffffffffffffffffffffffff1681526020018373ffffffffffffffffffffffffffffffffffffffff1673ffffffffffffffffffffffffffffffffffffffff168152602001828152602001935050505060405180910390a17fefad97b41cb2d292c37d4d71b9cb2cf828360d136d6707aa37fb40709287aefa6004858154811015156114c557fe5b906000526020600020900160009054906101000a900473ffffffffffffffffffffffffffffffffffffffff166001600060048881548110151561150457fe5b906000526020600020900160009054906101000a900473ffffffffffffffffffffffffffffffffffffffff1673ffffffffffffffffffffffffffffffffffffffff1673ffffffffffffffffffffffffffffffffffffffff16815260200190815260200160002060010154604051808373ffffffffffffffffffffffffffffffffffffffff1673ffffffffffffffffffffffffffffffffffffffff1681526020018281526020019250505060405180910390a183806001019450506110fa565b60006004816115d291906118e1565b506000600560006101000a81548160ff0219169083151502179055507f70845e07d4e4690ab26533ce1bad7106422a8395116601454954702b62d7ec3060006040518082815260200191505060405180910390a15050505050505050565b611638611a11565b6000806000846000600160008373ffffffffffffffffffffffffffffffffffffffff1673ffffffffffffffffffffffffffffffffffffffff168152602001908152602001600020905060008160000160009054906101000a900473ffffffffffffffffffffffffffffffffffffffff1673ffffffffffffffffffffffffffffffffffffffff16141515156116c857fe5b600160008873ffffffffffffffffffffffffffffffffffffffff1673ffffffffffffffffffffffffffffffffffffffff168152602001908152602001600020945084600201805490509350600584111561172157600593505b600092505b83831015611774578460020183600186030381548110151561174457fe5b906000526020600020900154868460058110151561175e57fe5b6020020181815250508280600101935050611726565b5050505050919050565b600080828401905083811015151561179257fe5b8091505092915050565b6000804340836040518083600019166000191681526020018273ffffffffffffffffffffffffffffffffffffffff1673ffffffffffffffffffffffffffffffffffffffff166c0100000000000000000000000002815260140192505050604051809103902042604051808360001916600019168152602001828152602001925050506040518091039020600190049050838181151561183757fe5b0691505092915050565b600080600060018401600a0a86029150600a6005868481151561186057fe5b040181151561186b57fe5b04905080925050509392505050565b600080828481151561188857fe5b0490508091505092915050565b600080828402905060008414806118b657508284828115156118b357fe5b04145b15156118be57fe5b8091505092915050565b60008282111515156118d657fe5b818303905092915050565b815481835581811511611908578183600052602060002091820191016119079190611a39565b5b505050565b608060405190810160405280600073ffffffffffffffffffffffffffffffffffffffff16815260200160008152602001611945611a5e565b8152602001611952611a5e565b81525090565b828054828255906000526020600020908101928215611994579160200282015b82811115611993578251825591602001919060010190611978565b5b5090506119a19190611a39565b5090565b8154818355818115116119cc578183600052602060002091820191016119cb9190611a39565b5b505050565b602060405190810160405280600081525090565b815481835581811511611a0c57818360005260206000209182019101611a0b9190611a39565b5b505050565b60a0604051908101604052806005905b6000815260200190600190039081611a215790505090565b611a5b91905b80821115611a57576000816000905550600101611a3f565b5090565b90565b6020604051908101604052806000815250905600a165627a7a723058208346ca1d69edf146badfbc06cdc64e34578e2e9f9e329af03bdcb87d29fc1d220029",
  "source": "pragma solidity ^0.4.14;\n\nimport './SafeMath.sol';\n\ncontract Gamble {\n    using SafeMath for uint;\n\n\n    // Gambler Info\n    struct Gambler {\n        address id;\n        uint balance;\n        uint[] historyResult;\n        uint[] historyTime;\n    }\n    address public owner;\n    mapping(address => Gambler) public gamblers;\n\n\n    uint totalGamePlayed = 0;\n    uint maxGamblerInGame = 2;\n    address[] currentGameGamblers;\n    bool inGame = false;\n\n    function Gamble() public {\n        owner = msg.sender;\n    }\n\n    // Event sending out the game result\n    event GameEndResult(address from, address to, uint amount);\n\n    // Event when number of gamer changed\n    event UpdateGamerNum(uint num);\n\n    // Event when balance changed\n    event UpdateGamerBalance(address to, uint num);\n\n    // Event when contract owner receive tips from other\n    event OwnerReceivedTips(address from, uint num);\n\n\n    modifier onlyOwner() {\n        require(msg.sender == owner);\n        _;\n    }\n\n    modifier gamblerExist(address gamblerId) {\n        var gambler = gamblers[gamblerId];\n        assert(gambler.id != 0x0);\n        _;\n    }\n\n    // Inorder to join game, number of current joined gamblers should be less than maxGamblerInGame\n    // Also a gambler should have a least 1 ether in the balance\n    modifier qualifiedJoin(address gamblerId) {\n        assert(currentGameGamblers.length < maxGamblerInGame);\n\n        var gambler = gamblers[gamblerId];\n        uint totalAmount = 0;\n        if (gambler.id != 0x0) {\n            totalAmount = gambler.balance.add(msg.value);\n        } else {\n            totalAmount = msg.value;\n        }\n        assert(totalAmount >= 1 ether);\n\n        // check if the gamer have already joined\n        for(uint i=0; i<currentGameGamblers.length; i++){\n            assert(currentGameGamblers[i] != msg.sender);\n        }\n        _;\n    }\n\n    // To join game, a gambler must have 1 ether in the balance or pay 1 ether\n    function joinGame() public payable qualifiedJoin(msg.sender) returns (uint totalGambler){\n        address gamblerId = msg.sender;\n        var gambler = gamblers[gamblerId];\n        // Gambler exist in our record\n        if (gambler.id != 0x0) {\n            gambler.balance = gambler.balance.add(msg.value);\n        } else{\n            // Create a new gambler\n            Gambler memory newGambler;\n            newGambler.id = gamblerId;\n            newGambler.balance = msg.value;\n            gamblers[gamblerId] = newGambler;\n        }\n        if (msg.value > 0){\n            UpdateGamerBalance(msg.sender, gamblers[gamblerId].balance);\n        }\n\n        currentGameGamblers.push(gamblerId);\n        totalGambler = currentGameGamblers.length;\n        UpdateGamerNum(totalGambler);\n    }\n\n    // Get gambler balance information\n    function checkGamblerBalance(address gamblerId) public constant gamblerExist(gamblerId) returns(uint balance){\n        balance = gamblers[gamblerId].balance;\n    }\n\n    // Check if gambler in game\n    function checkGamblerInGame(address gamblerId) public constant returns(bool joined){\n        joined = false;\n        for(uint i=0; i<currentGameGamblers.length; i++){\n            if(currentGameGamblers[i] == gamblerId){\n                joined = true;\n                break;\n            }\n        }\n\n    }\n\n    function getNumberOfGamer() public constant returns(uint numGamer){\n        numGamer = currentGameGamblers.length;\n    }\n\n    // A gambler can quit game anytime before game start\n    function quitGame() public returns(uint totalGambler){\n        assert(inGame == false);\n\n        uint idx = 0;\n        bool exist = false;\n        for(uint i=0; i<currentGameGamblers.length; i++){\n            if(currentGameGamblers[i] == msg.sender){\n                idx = i;\n                exist = true;\n                break;\n            }\n        }\n        assert(exist == true);\n\n        currentGameGamblers[idx] = currentGameGamblers[currentGameGamblers.length-1];\n        currentGameGamblers.length--;\n        totalGambler = currentGameGamblers.length;\n        UpdateGamerNum(totalGambler);\n    }\n\n    // A gambler is allowed to withdraw balance if he is not in a game\n    function withdraw() public gamblerExist(msg.sender) returns(uint amount){\n        bool exist = false;\n        for(uint i=0; i<currentGameGamblers.length; i++){\n            if(currentGameGamblers[i] == msg.sender){\n                exist = true;\n                break;\n            }\n        }\n        assert(exist == false);\n\n        amount = gamblers[msg.sender].balance;\n        gamblers[msg.sender].balance = 0;\n        msg.sender.transfer(amount);\n        UpdateGamerBalance(msg.sender, 0);\n    }\n\n    // tip the owner\n    function tipOwner() public payable{\n        owner.transfer(msg.value);\n        OwnerReceivedTips(msg.sender, msg.value);\n    }\n\n    // Get a random value\n    function _getRandomValue(uint upper, address gamblerId) private constant returns(uint rand){\n        uint _seed = uint(keccak256(keccak256(block.blockhash(block.number), gamblerId), now));\n        return _seed % upper;\n    }\n\n    // Calculate percent value\n    function _percent(uint numerator, uint denominator, uint precision) private constant returns(uint quotient) {\n         // caution, check safe-to-multiply here\n        uint _numerator  = numerator * 10 ** (precision+1);\n        // with rounding of last digit\n        uint _quotient =  ((_numerator / denominator) + 5) / 10;\n        return ( _quotient);\n    }\n\n    function getLastFiveGameResult(address gamblerId) public constant  gamblerExist(gamblerId) returns(uint[5] results){\n        var gambler = gamblers[gamblerId];\n        uint numGameResult = gambler.historyResult.length;\n        if (numGameResult > 5){\n            numGameResult = 5;\n        }\n        for(uint i=0; i<numGameResult; i++){\n            results[i] = gambler.historyResult[numGameResult-1-i];\n        }\n\n    }\n    // Start a Game\n    function startGame() public onlyOwner{\n        // Game can be start only when number of gamblers equal to maxGamblerInGame\n        assert(currentGameGamblers.length == maxGamblerInGame);\n\n        inGame = true;\n\n        uint[] memory gamblerRandVal = new uint[](maxGamblerInGame);\n        uint totalRandVal;\n        uint totalMoney = 0;\n        uint gameTime = now;\n        uint i = 0;\n        // Get a random value for each gamblers\n        for(i=0; i<currentGameGamblers.length; i++){\n            gamblerRandVal[i] = _getRandomValue(100, currentGameGamblers[i]).add(1);\n            totalRandVal = totalRandVal.add(gamblerRandVal[i]);\n            totalMoney = totalMoney.add(1 ether);\n        }\n\n        // Convert to percent value \n        for(i=0; i<currentGameGamblers.length; i++){\n            uint resultPercent = _percent(gamblerRandVal[i], totalRandVal, 3);\n            gamblerRandVal[i] = resultPercent;\n        }\n\n        // Split the money and record the game\n        for(i=0; i<currentGameGamblers.length; i++){\n            uint resultMoney = totalMoney.div(1000);\n            resultMoney = resultMoney.mul(gamblerRandVal[i]);\n            uint currentBalance = gamblers[currentGameGamblers[i]].balance;\n            gamblers[currentGameGamblers[i]].balance = currentBalance.sub(1 ether).add(resultMoney);\n            gamblers[currentGameGamblers[i]].historyResult.push(resultMoney);\n            gamblers[currentGameGamblers[i]].historyTime.push(gameTime);\n            // Send out the event for game result per user\n            GameEndResult(msg.sender, currentGameGamblers[i], resultMoney);\n            UpdateGamerBalance(currentGameGamblers[i], gamblers[currentGameGamblers[i]].balance);\n        }\n\n        // Clean the list and end the game\n        currentGameGamblers.length = 0;\n        inGame = false;\n        UpdateGamerNum(0);\n\n    }\n    \n}   ",
  "sourcePath": "/home/daze/Desktop/DWRS/contracts/Gamble.sol",
  "compiler": {
    "name": "solc",
    "version": "0.4.19+commit.c4cbbb05.Emscripten.clang"
  },
  "schemaVersion": "1.0.1",
  "updatedAt": "2018-02-25T00:22:03.465Z"
}