{
  "contractName": "Gamble",
  "abi": [
    {
      "constant": true,
      "inputs": [
        {
          "name": "",
          "type": "address"
        }
      ],
      "name": "gamblers",
      "outputs": [
        {
          "name": "id",
          "type": "address"
        },
        {
          "name": "balance",
          "type": "uint256"
        }
      ],
      "payable": false,
      "stateMutability": "view",
      "type": "function"
    },
    {
      "constant": true,
      "inputs": [],
      "name": "owner",
      "outputs": [
        {
          "name": "",
          "type": "address"
        }
      ],
      "payable": false,
      "stateMutability": "view",
      "type": "function"
    },
    {
      "inputs": [],
      "payable": false,
      "stateMutability": "nonpayable",
      "type": "constructor"
    },
    {
      "anonymous": false,
      "inputs": [
        {
          "indexed": false,
          "name": "from",
          "type": "address"
        },
        {
          "indexed": false,
          "name": "to",
          "type": "address"
        },
        {
          "indexed": false,
          "name": "amount",
          "type": "uint256"
        }
      ],
      "name": "GameEndResult",
      "type": "event"
    },
    {
      "anonymous": false,
      "inputs": [
        {
          "indexed": false,
          "name": "num",
          "type": "uint256"
        }
      ],
      "name": "UpdateGamerNum",
      "type": "event"
    },
    {
      "anonymous": false,
      "inputs": [
        {
          "indexed": false,
          "name": "to",
          "type": "address"
        },
        {
          "indexed": false,
          "name": "num",
          "type": "uint256"
        }
      ],
      "name": "UpdateGamerBalance",
      "type": "event"
    },
    {
      "constant": false,
      "inputs": [],
      "name": "joinGame",
      "outputs": [
        {
          "name": "totalGambler",
          "type": "uint256"
        }
      ],
      "payable": true,
      "stateMutability": "payable",
      "type": "function"
    },
    {
      "constant": true,
      "inputs": [
        {
          "name": "gamblerId",
          "type": "address"
        }
      ],
      "name": "checkGamblerBalance",
      "outputs": [
        {
          "name": "balance",
          "type": "uint256"
        }
      ],
      "payable": false,
      "stateMutability": "view",
      "type": "function"
    },
    {
      "constant": true,
      "inputs": [
        {
          "name": "gamblerId",
          "type": "address"
        }
      ],
      "name": "checkGamblerInGame",
      "outputs": [
        {
          "name": "joined",
          "type": "bool"
        }
      ],
      "payable": false,
      "stateMutability": "view",
      "type": "function"
    },
    {
      "constant": true,
      "inputs": [],
      "name": "getNumberOfGamer",
      "outputs": [
        {
          "name": "numGamer",
          "type": "uint256"
        }
      ],
      "payable": false,
      "stateMutability": "view",
      "type": "function"
    },
    {
      "constant": false,
      "inputs": [],
      "name": "quitGame",
      "outputs": [
        {
          "name": "totalGambler",
          "type": "uint256"
        }
      ],
      "payable": false,
      "stateMutability": "nonpayable",
      "type": "function"
    },
    {
      "constant": false,
      "inputs": [],
      "name": "withdraw",
      "outputs": [
        {
          "name": "amount",
          "type": "uint256"
        }
      ],
      "payable": false,
      "stateMutability": "nonpayable",
      "type": "function"
    },
    {
      "constant": false,
      "inputs": [],
      "name": "tipOwner",
      "outputs": [],
      "payable": true,
      "stateMutability": "payable",
      "type": "function"
    },
    {
      "constant": false,
      "inputs": [],
      "name": "startGame",
      "outputs": [],
      "payable": false,
      "stateMutability": "nonpayable",
      "type": "function"
    }
  ],
  "bytecode": "0x6060604052600060025560026003556000600560006101000a81548160ff021916908315150217905550341561003457600080fd5b336000806101000a81548173ffffffffffffffffffffffffffffffffffffffff021916908373ffffffffffffffffffffffffffffffffffffffff160217905550611756806100836000396000f3006060604052600436106100a4576000357c0100000000000000000000000000000000000000000000000000000000900463ffffffff168063052ede57146100a95780630d8908dc146100f65780633ccfd60b1461011f5780635c3539231461014857806383121772146101c85780638da5cb5b146101d2578063b4a6051214610227578063cabacd4114610250578063d4f77b1c146102a1578063d65ab5f2146102bf575b600080fd5b34156100b457600080fd5b6100e0600480803573ffffffffffffffffffffffffffffffffffffffff169060200190919050506102d4565b6040518082815260200191505060405180910390f35b341561010157600080fd5b6101096103ad565b6040518082815260200191505060405180910390f35b341561012a57600080fd5b6101326103ba565b6040518082815260200191505060405180910390f35b341561015357600080fd5b61017f600480803573ffffffffffffffffffffffffffffffffffffffff16906020019091905050610634565b604051808373ffffffffffffffffffffffffffffffffffffffff1673ffffffffffffffffffffffffffffffffffffffff1681526020018281526020019250505060405180910390f35b6101d0610678565b005b34156101dd57600080fd5b6101e56106db565b604051808273ffffffffffffffffffffffffffffffffffffffff1673ffffffffffffffffffffffffffffffffffffffff16815260200191505060405180910390f35b341561023257600080fd5b61023a610700565b6040518082815260200191505060405180910390f35b341561025b57600080fd5b610287600480803573ffffffffffffffffffffffffffffffffffffffff169060200190919050506108cc565b604051808215151515815260200191505060405180910390f35b6102a961096f565b6040518082815260200191505060405180910390f35b34156102ca57600080fd5b6102d2610dc2565b005b6000816000600160008373ffffffffffffffffffffffffffffffffffffffff1673ffffffffffffffffffffffffffffffffffffffff168152602001908152602001600020905060008160000160009054906101000a900473ffffffffffffffffffffffffffffffffffffffff1673ffffffffffffffffffffffffffffffffffffffff161415151561036157fe5b600160008573ffffffffffffffffffffffffffffffffffffffff1673ffffffffffffffffffffffffffffffffffffffff1681526020019081526020016000206001015492505050919050565b6000600480549050905090565b6000806000336000600160008373ffffffffffffffffffffffffffffffffffffffff1673ffffffffffffffffffffffffffffffffffffffff168152602001908152602001600020905060008160000160009054906101000a900473ffffffffffffffffffffffffffffffffffffffff1673ffffffffffffffffffffffffffffffffffffffff161415151561044a57fe5b60009350600092505b6004805490508310156104e4573373ffffffffffffffffffffffffffffffffffffffff1660048481548110151561048657fe5b906000526020600020900160009054906101000a900473ffffffffffffffffffffffffffffffffffffffff1673ffffffffffffffffffffffffffffffffffffffff1614156104d757600193506104e4565b8280600101935050610453565b600015158415151415156104f457fe5b600160003373ffffffffffffffffffffffffffffffffffffffff1673ffffffffffffffffffffffffffffffffffffffff1681526020019081526020016000206001015494506000600160003373ffffffffffffffffffffffffffffffffffffffff1673ffffffffffffffffffffffffffffffffffffffff168152602001908152602001600020600101819055503373ffffffffffffffffffffffffffffffffffffffff166108fc869081150290604051600060405180830381858888f1935050505015156105c157600080fd5b7fefad97b41cb2d292c37d4d71b9cb2cf828360d136d6707aa37fb40709287aefa336000604051808373ffffffffffffffffffffffffffffffffffffffff1673ffffffffffffffffffffffffffffffffffffffff1681526020018281526020019250505060405180910390a15050505090565b60016020528060005260406000206000915090508060000160009054906101000a900473ffffffffffffffffffffffffffffffffffffffff16908060010154905082565b6000809054906101000a900473ffffffffffffffffffffffffffffffffffffffff1673ffffffffffffffffffffffffffffffffffffffff166108fc349081150290604051600060405180830381858888f1935050505015156106d957600080fd5b565b6000809054906101000a900473ffffffffffffffffffffffffffffffffffffffff1681565b60008060008060001515600560009054906101000a900460ff16151514151561072557fe5b6000925060009150600090505b6004805490508110156107c6573373ffffffffffffffffffffffffffffffffffffffff1660048281548110151561076557fe5b906000526020600020900160009054906101000a900473ffffffffffffffffffffffffffffffffffffffff1673ffffffffffffffffffffffffffffffffffffffff1614156107b957809250600191506107c6565b8080600101915050610732565b600115158215151415156107d657fe5b60046001600480549050038154811015156107ed57fe5b906000526020600020900160009054906101000a900473ffffffffffffffffffffffffffffffffffffffff1660048481548110151561082857fe5b906000526020600020900160006101000a81548173ffffffffffffffffffffffffffffffffffffffff021916908373ffffffffffffffffffffffffffffffffffffffff160217905550600480548091906001900361088691906115c1565b5060048054905093507f70845e07d4e4690ab26533ce1bad7106422a8395116601454954702b62d7ec30846040518082815260200191505060405180910390a150505090565b60008060009150600090505b600480549050811015610969578273ffffffffffffffffffffffffffffffffffffffff1660048281548110151561090b57fe5b906000526020600020900160009054906101000a900473ffffffffffffffffffffffffffffffffffffffff1673ffffffffffffffffffffffffffffffffffffffff16141561095c5760019150610969565b80806001019150506108d8565b50919050565b600080600061097c6115ed565b33600080600060035460048054905010151561099457fe5b600160008573ffffffffffffffffffffffffffffffffffffffff1673ffffffffffffffffffffffffffffffffffffffff16815260200190815260200160002092506000915060008360000160009054906101000a900473ffffffffffffffffffffffffffffffffffffffff1673ffffffffffffffffffffffffffffffffffffffff16141515610a3b57610a3434846001015461145e90919063ffffffff16565b9150610a3f565b3491505b670de0b6b3a76400008210151515610a5357fe5b600090505b600480549050811015610ae4573373ffffffffffffffffffffffffffffffffffffffff16600482815481101515610a8b57fe5b906000526020600020900160009054906101000a900473ffffffffffffffffffffffffffffffffffffffff1673ffffffffffffffffffffffffffffffffffffffff1614151515610ad757fe5b8080600101915050610a58565b339650600160008873ffffffffffffffffffffffffffffffffffffffff1673ffffffffffffffffffffffffffffffffffffffff168152602001908152602001600020955060008660000160009054906101000a900473ffffffffffffffffffffffffffffffffffffffff1673ffffffffffffffffffffffffffffffffffffffff16141515610b9057610b8334876001015461145e90919063ffffffff16565b8660010181905550610ca1565b86856000019073ffffffffffffffffffffffffffffffffffffffff16908173ffffffffffffffffffffffffffffffffffffffff16815250503485602001818152505084600160008973ffffffffffffffffffffffffffffffffffffffff1673ffffffffffffffffffffffffffffffffffffffff16815260200190815260200160002060008201518160000160006101000a81548173ffffffffffffffffffffffffffffffffffffffff021916908373ffffffffffffffffffffffffffffffffffffffff160217905550602082015181600101556040820151816002019080519060200190610c7f929190611638565b506060820151816003019080519060200190610c9c929190611638565b509050505b6000341115610d16577fefad97b41cb2d292c37d4d71b9cb2cf828360d136d6707aa37fb40709287aefa3334604051808373ffffffffffffffffffffffffffffffffffffffff1673ffffffffffffffffffffffffffffffffffffffff1681526020018281526020019250505060405180910390a15b60048054806001018281610d2a9190611685565b9160005260206000209001600089909190916101000a81548173ffffffffffffffffffffffffffffffffffffffff021916908373ffffffffffffffffffffffffffffffffffffffff1602179055505060048054905097507f70845e07d4e4690ab26533ce1bad7106422a8395116601454954702b62d7ec30886040518082815260200191505060405180910390a15050505050505090565b610dca6116b1565b60008060008060008060008060009054906101000a900473ffffffffffffffffffffffffffffffffffffffff1673ffffffffffffffffffffffffffffffffffffffff163373ffffffffffffffffffffffffffffffffffffffff16141515610e3057600080fd5b600354600480549050141515610e4257fe5b6001600560006101000a81548160ff021916908315150217905550600354604051805910610e6d5750595b908082528060200260200182016040525097506000955042945060009350600093505b600480549050841015610f6757610ef56001610ee76064600488815481101515610eb657fe5b906000526020600020900160009054906101000a900473ffffffffffffffffffffffffffffffffffffffff1661147c565b61145e90919063ffffffff16565b8885815181101515610f0357fe5b9060200190602002018181525050610f3b8885815181101515610f2257fe5b906020019060200201518861145e90919063ffffffff16565b9650610f58670de0b6b3a76400008761145e90919063ffffffff16565b95508380600101945050610e90565b600093505b600480549050841015610fc857610f9c8885815181101515610f8a57fe5b90602001906020020151886003611521565b9250828885815181101515610fad57fe5b90602001906020020181815250508380600101945050610f6c565b600093505b6004805490508410156113f157610fef6103e88761155a90919063ffffffff16565b915061101b888581518110151561100257fe5b906020019060200201518361157590919063ffffffff16565b91506001600060048681548110151561103057fe5b906000526020600020900160009054906101000a900473ffffffffffffffffffffffffffffffffffffffff1673ffffffffffffffffffffffffffffffffffffffff1673ffffffffffffffffffffffffffffffffffffffff1681526020019081526020016000206001015490506110c9826110bb670de0b6b3a7640000846115a890919063ffffffff16565b61145e90919063ffffffff16565b600160006004878154811015156110dc57fe5b906000526020600020900160009054906101000a900473ffffffffffffffffffffffffffffffffffffffff1673ffffffffffffffffffffffffffffffffffffffff1673ffffffffffffffffffffffffffffffffffffffff168152602001908152602001600020600101819055506001600060048681548110151561115c57fe5b906000526020600020900160009054906101000a900473ffffffffffffffffffffffffffffffffffffffff1673ffffffffffffffffffffffffffffffffffffffff1673ffffffffffffffffffffffffffffffffffffffff16815260200190815260200160002060020180548060010182816111d791906116c5565b916000526020600020900160008490919091505550600160006004868154811015156111ff57fe5b906000526020600020900160009054906101000a900473ffffffffffffffffffffffffffffffffffffffff1673ffffffffffffffffffffffffffffffffffffffff1673ffffffffffffffffffffffffffffffffffffffff168152602001908152602001600020600301805480600101828161127a91906116c5565b9160005260206000209001600087909190915055507fb1bdfebfc039c2bae9b5e824f109cbeaf0b70f1d42e623f68d005e22f9fb8e2e336004868154811015156112c057fe5b906000526020600020900160009054906101000a900473ffffffffffffffffffffffffffffffffffffffff16600160006004898154811015156112ff57fe5b906000526020600020900160009054906101000a900473ffffffffffffffffffffffffffffffffffffffff1673ffffffffffffffffffffffffffffffffffffffff1673ffffffffffffffffffffffffffffffffffffffff16815260200190815260200160002060010154604051808473ffffffffffffffffffffffffffffffffffffffff1673ffffffffffffffffffffffffffffffffffffffff1681526020018373ffffffffffffffffffffffffffffffffffffffff1673ffffffffffffffffffffffffffffffffffffffff168152602001828152602001935050505060405180910390a18380600101945050610fcd565b600060048161140091906115c1565b506000600560006101000a81548160ff0219169083151502179055507f70845e07d4e4690ab26533ce1bad7106422a8395116601454954702b62d7ec3060006040518082815260200191505060405180910390a15050505050505050565b600080828401905083811015151561147257fe5b8091505092915050565b6000804340836040518083600019166000191681526020018273ffffffffffffffffffffffffffffffffffffffff1673ffffffffffffffffffffffffffffffffffffffff166c0100000000000000000000000002815260140192505050604051809103902042604051808360001916600019168152602001828152602001925050506040518091039020600190049050838181151561151757fe5b0691505092915050565b600080600060018401600a0a86029150600a6005868481151561154057fe5b040181151561154b57fe5b04905080925050509392505050565b600080828481151561156857fe5b0490508091505092915050565b60008082840290506000841480611596575082848281151561159357fe5b04145b151561159e57fe5b8091505092915050565b60008282111515156115b657fe5b818303905092915050565b8154818355818115116115e8578183600052602060002091820191016115e791906116f1565b5b505050565b608060405190810160405280600073ffffffffffffffffffffffffffffffffffffffff16815260200160008152602001611625611716565b8152602001611632611716565b81525090565b828054828255906000526020600020908101928215611674579160200282015b82811115611673578251825591602001919060010190611658565b5b50905061168191906116f1565b5090565b8154818355818115116116ac578183600052602060002091820191016116ab91906116f1565b5b505050565b602060405190810160405280600081525090565b8154818355818115116116ec578183600052602060002091820191016116eb91906116f1565b5b505050565b61171391905b8082111561170f5760008160009055506001016116f7565b5090565b90565b6020604051908101604052806000815250905600a165627a7a7230582063944768aa49c9d18d6b90865bc9d74791838b4de81f91cb683f938f62c95f1f0029",
  "source": "pragma solidity ^0.4.14;\n\nimport './SafeMath.sol';\n\ncontract Gamble {\n    using SafeMath for uint;\n\n\n    // Gambler Info\n    struct Gambler {\n        address id;\n        uint balance;\n        uint[] historyResult;\n        uint[] historyTime;\n    }\n    address public owner;\n    mapping(address => Gambler) public gamblers;\n\n\n    uint totalGamePlayed = 0;\n    uint maxGamblerInGame = 2;\n    address[] currentGameGamblers;\n    bool inGame = false;\n\n    function Gamble() public {\n        owner = msg.sender;\n    }\n\n    // Event sending out the game result\n    event GameEndResult(address from, address to, uint amount);\n\n    // Event when number of gamer changed\n    event UpdateGamerNum(uint num);\n\n    // Event when balance changed\n    event UpdateGamerBalance(address to, uint num);\n\n\n    modifier onlyOwner() {\n        require(msg.sender == owner);\n        _;\n    }\n\n    modifier gamblerExist(address gamblerId) {\n        var gambler = gamblers[gamblerId];\n        assert(gambler.id != 0x0);\n        _;\n    }\n\n    // Inorder to join game, number of current joined gamblers should be less than maxGamblerInGame\n    // Also a gambler should have a least 1 ether in the balance\n    modifier qualifiedJoin(address gamblerId) {\n        assert(currentGameGamblers.length < maxGamblerInGame);\n\n        var gambler = gamblers[gamblerId];\n        uint totalAmount = 0;\n        if (gambler.id != 0x0) {\n            totalAmount = gambler.balance.add(msg.value);\n        } else {\n            totalAmount = msg.value;\n        }\n        assert(totalAmount >= 1 ether);\n\n        // check if the gamer have already joined\n        for(uint i=0; i<currentGameGamblers.length; i++){\n            assert(currentGameGamblers[i] != msg.sender);\n        }\n        _;\n    }\n\n    // To join game, a gambler must have 1 ether in the balance or pay 1 ether\n    function joinGame() public payable qualifiedJoin(msg.sender) returns (uint totalGambler){\n        address gamblerId = msg.sender;\n        var gambler = gamblers[gamblerId];\n        // Gambler exist in our record\n        if (gambler.id != 0x0) {\n            gambler.balance = gambler.balance.add(msg.value);\n        } else{\n            // Create a new gambler\n            Gambler memory newGambler;\n            newGambler.id = gamblerId;\n            newGambler.balance = msg.value;\n            gamblers[gamblerId] = newGambler;\n        }\n        if (msg.value > 0){\n            UpdateGamerBalance(msg.sender, msg.value);\n        }\n\n        currentGameGamblers.push(gamblerId);\n        totalGambler = currentGameGamblers.length;\n        UpdateGamerNum(totalGambler);\n    }\n\n    // Get gambler balance information\n    function checkGamblerBalance(address gamblerId) public constant gamblerExist(gamblerId) returns(uint balance){\n        balance = gamblers[gamblerId].balance;\n    }\n\n    // Check if gambler in game\n    function checkGamblerInGame(address gamblerId) public constant returns(bool joined){\n        joined = false;\n        for(uint i=0; i<currentGameGamblers.length; i++){\n            if(currentGameGamblers[i] == gamblerId){\n                joined = true;\n                break;\n            }\n        }\n\n    }\n\n    function getNumberOfGamer() public constant returns(uint numGamer){\n        numGamer = currentGameGamblers.length;\n    }\n\n    // A gambler can quit game anytime before game start\n    function quitGame() public returns(uint totalGambler){\n        assert(inGame == false);\n\n        uint idx = 0;\n        bool exist = false;\n        for(uint i=0; i<currentGameGamblers.length; i++){\n            if(currentGameGamblers[i] == msg.sender){\n                idx = i;\n                exist = true;\n                break;\n            }\n        }\n        assert(exist == true);\n\n        currentGameGamblers[idx] = currentGameGamblers[currentGameGamblers.length-1];\n        currentGameGamblers.length--;\n        totalGambler = currentGameGamblers.length;\n        UpdateGamerNum(totalGambler);\n    }\n\n    // A gambler is allowed to withdraw balance if he is not in a game\n    function withdraw() public gamblerExist(msg.sender) returns(uint amount){\n        bool exist = false;\n        for(uint i=0; i<currentGameGamblers.length; i++){\n            if(currentGameGamblers[i] == msg.sender){\n                exist = true;\n                break;\n            }\n        }\n        assert(exist == false);\n\n        amount = gamblers[msg.sender].balance;\n        gamblers[msg.sender].balance = 0;\n        msg.sender.transfer(amount);\n        UpdateGamerBalance(msg.sender, 0);\n    }\n\n    // tip the owner\n    function tipOwner() public payable{\n        owner.transfer(msg.value);\n    }\n\n    // Get a random value\n    function _getRandomValue(uint upper, address gamblerId) private constant returns(uint rand){\n        uint _seed = uint(keccak256(keccak256(block.blockhash(block.number), gamblerId), now));\n        return _seed % upper;\n    }\n\n    // Calculate percent value\n    function _percent(uint numerator, uint denominator, uint precision) private constant returns(uint quotient) {\n         // caution, check safe-to-multiply here\n        uint _numerator  = numerator * 10 ** (precision+1);\n        // with rounding of last digit\n        uint _quotient =  ((_numerator / denominator) + 5) / 10;\n        return ( _quotient);\n    }\n\n    // Start a Game\n    function startGame() public onlyOwner{\n        // Game can be start only when number of gamblers equal to maxGamblerInGame\n        assert(currentGameGamblers.length == maxGamblerInGame);\n\n        inGame = true;\n\n        uint[] memory gamblerRandVal = new uint[](maxGamblerInGame);\n        uint totalRandVal;\n        uint totalMoney = 0;\n        uint gameTime = now;\n        uint i = 0;\n        // Get a random value for each gamblers\n        for(i=0; i<currentGameGamblers.length; i++){\n            gamblerRandVal[i] = _getRandomValue(100, currentGameGamblers[i]).add(1);\n            totalRandVal = totalRandVal.add(gamblerRandVal[i]);\n            totalMoney = totalMoney.add(1 ether);\n        }\n\n        // Convert to percent value \n        for(i=0; i<currentGameGamblers.length; i++){\n            uint resultPercent = _percent(gamblerRandVal[i], totalRandVal, 3);\n            gamblerRandVal[i] = resultPercent;\n        }\n\n        // Split the money and record the game\n        for(i=0; i<currentGameGamblers.length; i++){\n            uint resultMoney = totalMoney.div(1000);\n            resultMoney = resultMoney.mul(gamblerRandVal[i]);\n            uint currentBalance = gamblers[currentGameGamblers[i]].balance;\n            gamblers[currentGameGamblers[i]].balance = currentBalance.sub(1 ether).add(resultMoney);\n            gamblers[currentGameGamblers[i]].historyResult.push(resultMoney);\n            gamblers[currentGameGamblers[i]].historyTime.push(gameTime);\n            // Send out the event for game result per user\n            GameEndResult(msg.sender, currentGameGamblers[i], gamblers[currentGameGamblers[i]].balance);\n        }\n\n        // Clean the list and end the game\n        currentGameGamblers.length = 0;\n        inGame = false;\n        UpdateGamerNum(0);\n\n    }\n    \n}",
  "sourcePath": "/home/daze/Desktop/DWRS/contracts/Gamble.sol",
  "compiler": {
    "name": "solc",
    "version": "0.4.19+commit.c4cbbb05.Emscripten.clang"
  },
  "schemaVersion": "1.0.1",
  "updatedAt": "2018-02-23T20:05:47.420Z"
}