{
  "contractName": "Gamble",
  "abi": [
    {
      "constant": true,
      "inputs": [
        {
          "name": "gamblerId",
          "type": "address"
        }
      ],
      "name": "checkGamblerBalance",
      "outputs": [
        {
          "name": "balance",
          "type": "uint256"
        }
      ],
      "payable": false,
      "stateMutability": "view",
      "type": "function"
    },
    {
      "constant": false,
      "inputs": [],
      "name": "withdraw",
      "outputs": [
        {
          "name": "amount",
          "type": "uint256"
        }
      ],
      "payable": false,
      "stateMutability": "nonpayable",
      "type": "function"
    },
    {
      "constant": true,
      "inputs": [
        {
          "name": "",
          "type": "address"
        }
      ],
      "name": "gamblers",
      "outputs": [
        {
          "name": "id",
          "type": "address"
        },
        {
          "name": "balance",
          "type": "uint256"
        }
      ],
      "payable": false,
      "stateMutability": "view",
      "type": "function"
    },
    {
      "constant": false,
      "inputs": [],
      "name": "tipOwner",
      "outputs": [],
      "payable": true,
      "stateMutability": "payable",
      "type": "function"
    },
    {
      "constant": true,
      "inputs": [],
      "name": "owner",
      "outputs": [
        {
          "name": "",
          "type": "address"
        }
      ],
      "payable": false,
      "stateMutability": "view",
      "type": "function"
    },
    {
      "constant": false,
      "inputs": [],
      "name": "quitGame",
      "outputs": [
        {
          "name": "totalGambler",
          "type": "uint256"
        }
      ],
      "payable": false,
      "stateMutability": "nonpayable",
      "type": "function"
    },
    {
      "constant": false,
      "inputs": [],
      "name": "joinGame",
      "outputs": [
        {
          "name": "totalGambler",
          "type": "uint256"
        }
      ],
      "payable": true,
      "stateMutability": "payable",
      "type": "function"
    },
    {
      "constant": false,
      "inputs": [],
      "name": "startGame",
      "outputs": [],
      "payable": false,
      "stateMutability": "nonpayable",
      "type": "function"
    },
    {
      "inputs": [],
      "payable": false,
      "stateMutability": "nonpayable",
      "type": "constructor"
    }
  ],
  "bytecode": "0x6060604052600060025560026003556000600560006101000a81548160ff021916908315150217905550341561003457600080fd5b336000806101000a81548173ffffffffffffffffffffffffffffffffffffffff021916908373ffffffffffffffffffffffffffffffffffffffff1602179055506112a6806100836000396000f30060606040526004361061008e576000357c0100000000000000000000000000000000000000000000000000000000900463ffffffff168063052ede57146100935780633ccfd60b146100e05780635c3539231461010957806383121772146101895780638da5cb5b14610193578063b4a60512146101e8578063d4f77b1c14610211578063d65ab5f21461022f575b600080fd5b341561009e57600080fd5b6100ca600480803573ffffffffffffffffffffffffffffffffffffffff16906020019091905050610244565b6040518082815260200191505060405180910390f35b34156100eb57600080fd5b6100f361031d565b6040518082815260200191505060405180910390f35b341561011457600080fd5b610140600480803573ffffffffffffffffffffffffffffffffffffffff1690602001909190505061052b565b604051808373ffffffffffffffffffffffffffffffffffffffff1673ffffffffffffffffffffffffffffffffffffffff1681526020018281526020019250505060405180910390f35b61019161056f565b005b341561019e57600080fd5b6101a66105d2565b604051808273ffffffffffffffffffffffffffffffffffffffff1673ffffffffffffffffffffffffffffffffffffffff16815260200191505060405180910390f35b34156101f357600080fd5b6101fb6105f7565b6040518082815260200191505060405180910390f35b61021961078c565b6040518082815260200191505060405180910390f35b341561023a57600080fd5b610242610a9f565b005b6000816000600160008373ffffffffffffffffffffffffffffffffffffffff1673ffffffffffffffffffffffffffffffffffffffff168152602001908152602001600020905060008160000160009054906101000a900473ffffffffffffffffffffffffffffffffffffffff1673ffffffffffffffffffffffffffffffffffffffff16141515156102d157fe5b600160008573ffffffffffffffffffffffffffffffffffffffff1673ffffffffffffffffffffffffffffffffffffffff1681526020019081526020016000206001015492505050919050565b6000806000336000600160008373ffffffffffffffffffffffffffffffffffffffff1673ffffffffffffffffffffffffffffffffffffffff168152602001908152602001600020905060008160000160009054906101000a900473ffffffffffffffffffffffffffffffffffffffff1673ffffffffffffffffffffffffffffffffffffffff16141515156103ad57fe5b60009350600092505b600480549050831015610447573373ffffffffffffffffffffffffffffffffffffffff166004848154811015156103e957fe5b906000526020600020900160009054906101000a900473ffffffffffffffffffffffffffffffffffffffff1673ffffffffffffffffffffffffffffffffffffffff16141561043a5760019350610447565b82806001019350506103b6565b6000151584151514151561045757fe5b600160003373ffffffffffffffffffffffffffffffffffffffff1673ffffffffffffffffffffffffffffffffffffffff1681526020019081526020016000206001015494506000600160003373ffffffffffffffffffffffffffffffffffffffff1673ffffffffffffffffffffffffffffffffffffffff168152602001908152602001600020600101819055503373ffffffffffffffffffffffffffffffffffffffff166108fc869081150290604051600060405180830381858888f19350505050151561052457600080fd5b5050505090565b60016020528060005260406000206000915090508060000160009054906101000a900473ffffffffffffffffffffffffffffffffffffffff16908060010154905082565b6000809054906101000a900473ffffffffffffffffffffffffffffffffffffffff1673ffffffffffffffffffffffffffffffffffffffff166108fc349081150290604051600060405180830381858888f1935050505015156105d057600080fd5b565b6000809054906101000a900473ffffffffffffffffffffffffffffffffffffffff1681565b60008060008060001515600560009054906101000a900460ff16151514151561061c57fe5b6000925060009150600090505b6004805490508110156106bd573373ffffffffffffffffffffffffffffffffffffffff1660048281548110151561065c57fe5b906000526020600020900160009054906101000a900473ffffffffffffffffffffffffffffffffffffffff1673ffffffffffffffffffffffffffffffffffffffff1614156106b057809250600191506106bd565b8080600101915050610629565b600115158215151415156106cd57fe5b60046001600480549050038154811015156106e457fe5b906000526020600020900160009054906101000a900473ffffffffffffffffffffffffffffffffffffffff1660048481548110151561071f57fe5b906000526020600020900160006101000a81548173ffffffffffffffffffffffffffffffffffffffff021916908373ffffffffffffffffffffffffffffffffffffffff160217905550600480548091906001900361077d9190611111565b50600480549050935050505090565b600080600061079961113d565b336000806003546004805490501015156107af57fe5b600160008473ffffffffffffffffffffffffffffffffffffffff1673ffffffffffffffffffffffffffffffffffffffff16815260200190815260200160002091506000905060008260000160009054906101000a900473ffffffffffffffffffffffffffffffffffffffff1673ffffffffffffffffffffffffffffffffffffffff161415156108565761084f348360010154610fae90919063ffffffff16565b905061085a565b3490505b670de0b6b3a7640000811015151561086e57fe5b339550600160008773ffffffffffffffffffffffffffffffffffffffff1673ffffffffffffffffffffffffffffffffffffffff168152602001908152602001600020945060008560000160009054906101000a900473ffffffffffffffffffffffffffffffffffffffff1673ffffffffffffffffffffffffffffffffffffffff1614151561091a5761090d348660010154610fae90919063ffffffff16565b8560010181905550610a2b565b85846000019073ffffffffffffffffffffffffffffffffffffffff16908173ffffffffffffffffffffffffffffffffffffffff16815250503484602001818152505083600160008873ffffffffffffffffffffffffffffffffffffffff1673ffffffffffffffffffffffffffffffffffffffff16815260200190815260200160002060008201518160000160006101000a81548173ffffffffffffffffffffffffffffffffffffffff021916908373ffffffffffffffffffffffffffffffffffffffff160217905550602082015181600101556040820151816002019080519060200190610a09929190611188565b506060820151816003019080519060200190610a26929190611188565b509050505b60048054806001018281610a3f91906111d5565b9160005260206000209001600088909190916101000a81548173ffffffffffffffffffffffffffffffffffffffff021916908373ffffffffffffffffffffffffffffffffffffffff16021790555050600480549050965050505050505090565b610aa7611201565b60008060008060008060008060009054906101000a900473ffffffffffffffffffffffffffffffffffffffff1673ffffffffffffffffffffffffffffffffffffffff163373ffffffffffffffffffffffffffffffffffffffff16141515610b0d57600080fd5b600354600480549050141515610b1f57fe5b6001600560006101000a81548160ff021916908315150217905550600354604051805910610b4a5750595b908082528060200260200182016040525097506000955042945060009350600093505b600480549050841015610c4457610bd26001610bc46064600488815481101515610b9357fe5b906000526020600020900160009054906101000a900473ffffffffffffffffffffffffffffffffffffffff16610fcc565b610fae90919063ffffffff16565b8885815181101515610be057fe5b9060200190602002018181525050610c188885815181101515610bff57fe5b9060200190602002015188610fae90919063ffffffff16565b9650610c35670de0b6b3a764000087610fae90919063ffffffff16565b95508380600101945050610b6d565b600093505b600480549050841015610ca557610c798885815181101515610c6757fe5b90602001906020020151886003611071565b9250828885815181101515610c8a57fe5b90602001906020020181815250508380600101945050610c49565b600093505b600480549050841015610f7957610ccc6103e8876110aa90919063ffffffff16565b9150610cf88885815181101515610cdf57fe5b90602001906020020151836110c590919063ffffffff16565b915060016000600486815481101515610d0d57fe5b906000526020600020900160009054906101000a900473ffffffffffffffffffffffffffffffffffffffff1673ffffffffffffffffffffffffffffffffffffffff1673ffffffffffffffffffffffffffffffffffffffff168152602001908152602001600020600101549050610da682610d98670de0b6b3a764000084610fae90919063ffffffff16565b6110f890919063ffffffff16565b60016000600487815481101515610db957fe5b906000526020600020900160009054906101000a900473ffffffffffffffffffffffffffffffffffffffff1673ffffffffffffffffffffffffffffffffffffffff1673ffffffffffffffffffffffffffffffffffffffff1681526020019081526020016000206001018190555060016000600486815481101515610e3957fe5b906000526020600020900160009054906101000a900473ffffffffffffffffffffffffffffffffffffffff1673ffffffffffffffffffffffffffffffffffffffff1673ffffffffffffffffffffffffffffffffffffffff1681526020019081526020016000206002018054806001018281610eb49190611215565b91600052602060002090016000849091909150555060016000600486815481101515610edc57fe5b906000526020600020900160009054906101000a900473ffffffffffffffffffffffffffffffffffffffff1673ffffffffffffffffffffffffffffffffffffffff1673ffffffffffffffffffffffffffffffffffffffff1681526020019081526020016000206003018054806001018281610f579190611215565b9160005260206000209001600087909190915055508380600101945050610caa565b6000600481610f889190611111565b506000600560006101000a81548160ff0219169083151502179055505050505050505050565b6000808284019050838110151515610fc257fe5b8091505092915050565b6000804340836040518083600019166000191681526020018273ffffffffffffffffffffffffffffffffffffffff1673ffffffffffffffffffffffffffffffffffffffff166c0100000000000000000000000002815260140192505050604051809103902042604051808360001916600019168152602001828152602001925050506040518091039020600190049050838181151561106757fe5b0691505092915050565b600080600060018401600a0a86029150600a6005868481151561109057fe5b040181151561109b57fe5b04905080925050509392505050565b60008082848115156110b857fe5b0490508091505092915050565b600080828402905060008414806110e657508284828115156110e357fe5b04145b15156110ee57fe5b8091505092915050565b600082821115151561110657fe5b818303905092915050565b815481835581811511611138578183600052602060002091820191016111379190611241565b5b505050565b608060405190810160405280600073ffffffffffffffffffffffffffffffffffffffff16815260200160008152602001611175611266565b8152602001611182611266565b81525090565b8280548282559060005260206000209081019282156111c4579160200282015b828111156111c35782518255916020019190600101906111a8565b5b5090506111d19190611241565b5090565b8154818355818115116111fc578183600052602060002091820191016111fb9190611241565b5b505050565b602060405190810160405280600081525090565b81548183558181151161123c5781836000526020600020918201910161123b9190611241565b5b505050565b61126391905b8082111561125f576000816000905550600101611247565b5090565b90565b6020604051908101604052806000815250905600a165627a7a72305820ccc243a8e1940219128eadcf5909f6fa42504f094cc04503b601d1c1a306187b0029",
  "source": "pragma solidity ^0.4.14;\n\nimport './SafeMath.sol';\n\ncontract Gamble {\n    using SafeMath for uint;\n\n\n    // Gambler Info\n    struct Gambler {\n        address id;\n        uint balance;\n        uint[] historyResult;\n        uint[] historyTime;\n    }\n    address public owner;\n    mapping(address => Gambler) public gamblers;\n\n\n    uint totalGamePlayed = 0;\n    uint maxGamblerInGame = 2;\n    address[] currentGameGamblers;\n    bool inGame = false;\n\n    function Gamble() public {\n        owner = msg.sender;\n    }\n\n    modifier onlyOwner() {\n        require(msg.sender == owner);\n        _;\n    }\n\n\n    modifier gamblerExist(address gamblerId) {\n        var gambler = gamblers[gamblerId];\n        assert(gambler.id != 0x0);\n        _;\n    }\n\n    // Inorder to join game, number of current joined gamblers should be less than maxGamblerInGame\n    // Also a gambler should have a least 1 ether in the balance\n    modifier qualifiedJoin(address gamblerId) {\n        assert(currentGameGamblers.length < maxGamblerInGame);\n\n        var gambler = gamblers[gamblerId];\n        uint totalAmount = 0;\n        if (gambler.id != 0x0) {\n            totalAmount = gambler.balance.add(msg.value);\n        } else {\n            totalAmount = msg.value;\n        }\n        assert(totalAmount >= 1 ether);\n        _;\n    }\n\n    // To join game, a gambler must have 1 ether in the balance or pay 1 ether\n    function joinGame() public payable qualifiedJoin(msg.sender) returns (uint totalGambler){\n        address gamblerId = msg.sender;\n        var gambler = gamblers[gamblerId];\n        // Gambler exist in our record\n        if (gambler.id != 0x0) {\n            gambler.balance = gambler.balance.add(msg.value);\n        } else{\n            // Create a new gambler\n            Gambler memory newGambler;\n            newGambler.id = gamblerId;\n            newGambler.balance = msg.value;\n            gamblers[gamblerId] = newGambler;\n        }\n\n        currentGameGamblers.push(gamblerId);\n        totalGambler = currentGameGamblers.length;\n    }\n\n    // Get gambler balance information\n    function checkGamblerBalance(address gamblerId) public constant gamblerExist(gamblerId) returns(uint balance){\n        balance =  gamblers[gamblerId].balance;\n    }\n\n    // A gambler can quit game anytime before game start\n    function quitGame() public returns(uint totalGambler){\n        assert(inGame == false);\n\n        uint idx = 0;\n        bool exist = false;\n        for(uint i=0; i<currentGameGamblers.length; i++){\n            if(currentGameGamblers[i] == msg.sender){\n                idx = i;\n                exist = true;\n                break;\n            }\n        }\n        assert(exist == true);\n\n        currentGameGamblers[idx] = currentGameGamblers[currentGameGamblers.length-1];\n        currentGameGamblers.length--;\n        totalGambler = currentGameGamblers.length;\n    }\n\n    // A gambler is allowed to withdraw balance if he is not in a game\n    function withdraw() public gamblerExist(msg.sender) returns(uint amount){\n        bool exist = false;\n        for(uint i=0; i<currentGameGamblers.length; i++){\n            if(currentGameGamblers[i] == msg.sender){\n                exist = true;\n                break;\n            }\n        }\n        assert(exist == false);\n\n        amount = gamblers[msg.sender].balance;\n        gamblers[msg.sender].balance = 0;\n        msg.sender.transfer(amount);\n    }\n\n    // tip the owner\n    function tipOwner() public payable{\n        owner.transfer(msg.value);\n    }\n\n    // Get a random value\n    function _getRandomValue(uint upper, address gamblerId) private constant returns(uint rand){\n        uint _seed = uint(keccak256(keccak256(block.blockhash(block.number), gamblerId), now));\n        return _seed % upper;\n    }\n\n    // Calculate percent value\n    function _percent(uint numerator, uint denominator, uint precision) private constant returns(uint quotient) {\n         // caution, check safe-to-multiply here\n        uint _numerator  = numerator * 10 ** (precision+1);\n        // with rounding of last digit\n        uint _quotient =  ((_numerator / denominator) + 5) / 10;\n        return ( _quotient);\n    }\n\n    // Start a Game\n    function startGame() public onlyOwner{\n        // Game can be start only when number of gamblers equal to maxGamblerInGame\n        assert(currentGameGamblers.length == maxGamblerInGame);\n\n        inGame = true;\n\n        uint[] memory gamblerRandVal = new uint[](maxGamblerInGame);\n        uint totalRandVal;\n        uint totalMoney = 0;\n        uint gameTime = now;\n        uint i = 0;\n        // Get a random value for each gamblers\n        for(i=0; i<currentGameGamblers.length; i++){\n            gamblerRandVal[i] = _getRandomValue(100, currentGameGamblers[i]).add(1);\n            totalRandVal = totalRandVal.add(gamblerRandVal[i]);\n            totalMoney = totalMoney.add(1 ether);\n        }\n\n        // Convert to percent value \n        for(i=0; i<currentGameGamblers.length; i++){\n            uint resultPercent = _percent(gamblerRandVal[i], totalRandVal, 3);\n            gamblerRandVal[i] = resultPercent;\n        }\n\n        // Split the money and record the game\n        for(i=0; i<currentGameGamblers.length; i++){\n            uint resultMoney = totalMoney.div(1000);\n            resultMoney = resultMoney.mul(gamblerRandVal[i]);\n            uint currentBalance = gamblers[currentGameGamblers[i]].balance;\n            gamblers[currentGameGamblers[i]].balance = currentBalance.add(1 ether).sub(resultMoney);\n            gamblers[currentGameGamblers[i]].historyResult.push(resultMoney);\n            gamblers[currentGameGamblers[i]].historyTime.push(gameTime);\n        }\n\n        // Clean the list and end the game\n        currentGameGamblers.length = 0;\n        inGame = false;\n\n    }\n    \n}",
  "sourcePath": "/Users/bolunqi/Desktop/DWRS/contracts/Gamble.sol",
  "compiler": {
    "name": "solc",
    "version": "0.4.18+commit.9cf6e910.Emscripten.clang"
  },
  "schemaVersion": "1.0.1",
  "updatedAt": "2018-02-21T03:25:06.862Z"
}