{
  "contractName": "Gamble",
  "abi": [
    {
      "constant": true,
      "inputs": [
        {
          "name": "",
          "type": "address"
        }
      ],
      "name": "gamblers",
      "outputs": [
        {
          "name": "id",
          "type": "address"
        },
        {
          "name": "balance",
          "type": "uint256"
        }
      ],
      "payable": false,
      "stateMutability": "view",
      "type": "function"
    },
    {
      "constant": true,
      "inputs": [],
      "name": "owner",
      "outputs": [
        {
          "name": "",
          "type": "address"
        }
      ],
      "payable": false,
      "stateMutability": "view",
      "type": "function"
    },
    {
      "inputs": [],
      "payable": false,
      "stateMutability": "nonpayable",
      "type": "constructor"
    },
    {
      "anonymous": false,
      "inputs": [
        {
          "indexed": false,
          "name": "from",
          "type": "address"
        },
        {
          "indexed": false,
          "name": "to",
          "type": "address"
        },
        {
          "indexed": false,
          "name": "amount",
          "type": "uint256"
        }
      ],
      "name": "GameEndResult",
      "type": "event"
    },
    {
      "anonymous": false,
      "inputs": [
        {
          "indexed": false,
          "name": "num",
          "type": "uint256"
        }
      ],
      "name": "UpdateGamerNum",
      "type": "event"
    },
    {
      "anonymous": false,
      "inputs": [
        {
          "indexed": false,
          "name": "to",
          "type": "address"
        },
        {
          "indexed": false,
          "name": "num",
          "type": "uint256"
        }
      ],
      "name": "UpdateGamerBalance",
      "type": "event"
    },
    {
      "anonymous": false,
      "inputs": [
        {
          "indexed": false,
          "name": "from",
          "type": "address"
        },
        {
          "indexed": false,
          "name": "num",
          "type": "uint256"
        }
      ],
      "name": "OwnerReceivedTips",
      "type": "event"
    },
    {
      "constant": false,
      "inputs": [],
      "name": "joinGame",
      "outputs": [
        {
          "name": "totalGambler",
          "type": "uint256"
        }
      ],
      "payable": true,
      "stateMutability": "payable",
      "type": "function"
    },
    {
      "constant": true,
      "inputs": [
        {
          "name": "gamblerId",
          "type": "address"
        }
      ],
      "name": "checkGamblerBalance",
      "outputs": [
        {
          "name": "balance",
          "type": "uint256"
        }
      ],
      "payable": false,
      "stateMutability": "view",
      "type": "function"
    },
    {
      "constant": true,
      "inputs": [
        {
          "name": "gamblerId",
          "type": "address"
        }
      ],
      "name": "checkGamblerInGame",
      "outputs": [
        {
          "name": "joined",
          "type": "bool"
        }
      ],
      "payable": false,
      "stateMutability": "view",
      "type": "function"
    },
    {
      "constant": true,
      "inputs": [],
      "name": "getNumberOfGamer",
      "outputs": [
        {
          "name": "numGamer",
          "type": "uint256"
        }
      ],
      "payable": false,
      "stateMutability": "view",
      "type": "function"
    },
    {
      "constant": false,
      "inputs": [],
      "name": "quitGame",
      "outputs": [
        {
          "name": "totalGambler",
          "type": "uint256"
        }
      ],
      "payable": false,
      "stateMutability": "nonpayable",
      "type": "function"
    },
    {
      "constant": false,
      "inputs": [],
      "name": "withdraw",
      "outputs": [
        {
          "name": "amount",
          "type": "uint256"
        }
      ],
      "payable": false,
      "stateMutability": "nonpayable",
      "type": "function"
    },
    {
      "constant": false,
      "inputs": [],
      "name": "tipOwner",
      "outputs": [],
      "payable": true,
      "stateMutability": "payable",
      "type": "function"
    },
    {
      "constant": false,
      "inputs": [],
      "name": "startGame",
      "outputs": [],
      "payable": false,
      "stateMutability": "nonpayable",
      "type": "function"
    }
  ],
  "bytecode": "0x6060604052600060025560026003556000600560006101000a81548160ff021916908315150217905550341561003457600080fd5b336000806101000a81548173ffffffffffffffffffffffffffffffffffffffff021916908373ffffffffffffffffffffffffffffffffffffffff1602179055506118a8806100836000396000f3006060604052600436106100a4576000357c0100000000000000000000000000000000000000000000000000000000900463ffffffff168063052ede57146100a95780630d8908dc146100f65780633ccfd60b1461011f5780635c3539231461014857806383121772146101c85780638da5cb5b146101d2578063b4a6051214610227578063cabacd4114610250578063d4f77b1c146102a1578063d65ab5f2146102bf575b600080fd5b34156100b457600080fd5b6100e0600480803573ffffffffffffffffffffffffffffffffffffffff169060200190919050506102d4565b6040518082815260200191505060405180910390f35b341561010157600080fd5b6101096103ad565b6040518082815260200191505060405180910390f35b341561012a57600080fd5b6101326103ba565b6040518082815260200191505060405180910390f35b341561015357600080fd5b61017f600480803573ffffffffffffffffffffffffffffffffffffffff16906020019091905050610634565b604051808373ffffffffffffffffffffffffffffffffffffffff1673ffffffffffffffffffffffffffffffffffffffff1681526020018281526020019250505060405180910390f35b6101d0610678565b005b34156101dd57600080fd5b6101e5610746565b604051808273ffffffffffffffffffffffffffffffffffffffff1673ffffffffffffffffffffffffffffffffffffffff16815260200191505060405180910390f35b341561023257600080fd5b61023a61076b565b6040518082815260200191505060405180910390f35b341561025b57600080fd5b610287600480803573ffffffffffffffffffffffffffffffffffffffff16906020019091905050610937565b604051808215151515815260200191505060405180910390f35b6102a96109da565b6040518082815260200191505060405180910390f35b34156102ca57600080fd5b6102d2610e6f565b005b6000816000600160008373ffffffffffffffffffffffffffffffffffffffff1673ffffffffffffffffffffffffffffffffffffffff168152602001908152602001600020905060008160000160009054906101000a900473ffffffffffffffffffffffffffffffffffffffff1673ffffffffffffffffffffffffffffffffffffffff161415151561036157fe5b600160008573ffffffffffffffffffffffffffffffffffffffff1673ffffffffffffffffffffffffffffffffffffffff1681526020019081526020016000206001015492505050919050565b6000600480549050905090565b6000806000336000600160008373ffffffffffffffffffffffffffffffffffffffff1673ffffffffffffffffffffffffffffffffffffffff168152602001908152602001600020905060008160000160009054906101000a900473ffffffffffffffffffffffffffffffffffffffff1673ffffffffffffffffffffffffffffffffffffffff161415151561044a57fe5b60009350600092505b6004805490508310156104e4573373ffffffffffffffffffffffffffffffffffffffff1660048481548110151561048657fe5b906000526020600020900160009054906101000a900473ffffffffffffffffffffffffffffffffffffffff1673ffffffffffffffffffffffffffffffffffffffff1614156104d757600193506104e4565b8280600101935050610453565b600015158415151415156104f457fe5b600160003373ffffffffffffffffffffffffffffffffffffffff1673ffffffffffffffffffffffffffffffffffffffff1681526020019081526020016000206001015494506000600160003373ffffffffffffffffffffffffffffffffffffffff1673ffffffffffffffffffffffffffffffffffffffff168152602001908152602001600020600101819055503373ffffffffffffffffffffffffffffffffffffffff166108fc869081150290604051600060405180830381858888f1935050505015156105c157600080fd5b7fefad97b41cb2d292c37d4d71b9cb2cf828360d136d6707aa37fb40709287aefa336000604051808373ffffffffffffffffffffffffffffffffffffffff1673ffffffffffffffffffffffffffffffffffffffff1681526020018281526020019250505060405180910390a15050505090565b60016020528060005260406000206000915090508060000160009054906101000a900473ffffffffffffffffffffffffffffffffffffffff16908060010154905082565b6000809054906101000a900473ffffffffffffffffffffffffffffffffffffffff1673ffffffffffffffffffffffffffffffffffffffff166108fc349081150290604051600060405180830381858888f1935050505015156106d957600080fd5b7f98856cad27959cf3255e8abcb5bd5ae2954f45d6b70c23449792b9013494c54c3334604051808373ffffffffffffffffffffffffffffffffffffffff1673ffffffffffffffffffffffffffffffffffffffff1681526020018281526020019250505060405180910390a1565b6000809054906101000a900473ffffffffffffffffffffffffffffffffffffffff1681565b60008060008060001515600560009054906101000a900460ff16151514151561079057fe5b6000925060009150600090505b600480549050811015610831573373ffffffffffffffffffffffffffffffffffffffff166004828154811015156107d057fe5b906000526020600020900160009054906101000a900473ffffffffffffffffffffffffffffffffffffffff1673ffffffffffffffffffffffffffffffffffffffff1614156108245780925060019150610831565b808060010191505061079d565b6001151582151514151561084157fe5b600460016004805490500381548110151561085857fe5b906000526020600020900160009054906101000a900473ffffffffffffffffffffffffffffffffffffffff1660048481548110151561089357fe5b906000526020600020900160006101000a81548173ffffffffffffffffffffffffffffffffffffffff021916908373ffffffffffffffffffffffffffffffffffffffff16021790555060048054809190600190036108f19190611713565b5060048054905093507f70845e07d4e4690ab26533ce1bad7106422a8395116601454954702b62d7ec30846040518082815260200191505060405180910390a150505090565b60008060009150600090505b6004805490508110156109d4578273ffffffffffffffffffffffffffffffffffffffff1660048281548110151561097657fe5b906000526020600020900160009054906101000a900473ffffffffffffffffffffffffffffffffffffffff1673ffffffffffffffffffffffffffffffffffffffff1614156109c757600191506109d4565b8080600101915050610943565b50919050565b60008060006109e761173f565b3360008060006003546004805490501015156109ff57fe5b600160008573ffffffffffffffffffffffffffffffffffffffff1673ffffffffffffffffffffffffffffffffffffffff16815260200190815260200160002092506000915060008360000160009054906101000a900473ffffffffffffffffffffffffffffffffffffffff1673ffffffffffffffffffffffffffffffffffffffff16141515610aa657610a9f3484600101546115b090919063ffffffff16565b9150610aaa565b3491505b670de0b6b3a76400008210151515610abe57fe5b600090505b600480549050811015610b4f573373ffffffffffffffffffffffffffffffffffffffff16600482815481101515610af657fe5b906000526020600020900160009054906101000a900473ffffffffffffffffffffffffffffffffffffffff1673ffffffffffffffffffffffffffffffffffffffff1614151515610b4257fe5b8080600101915050610ac3565b339650600160008873ffffffffffffffffffffffffffffffffffffffff1673ffffffffffffffffffffffffffffffffffffffff168152602001908152602001600020955060008660000160009054906101000a900473ffffffffffffffffffffffffffffffffffffffff1673ffffffffffffffffffffffffffffffffffffffff16141515610bfb57610bee3487600101546115b090919063ffffffff16565b8660010181905550610d0c565b86856000019073ffffffffffffffffffffffffffffffffffffffff16908173ffffffffffffffffffffffffffffffffffffffff16815250503485602001818152505084600160008973ffffffffffffffffffffffffffffffffffffffff1673ffffffffffffffffffffffffffffffffffffffff16815260200190815260200160002060008201518160000160006101000a81548173ffffffffffffffffffffffffffffffffffffffff021916908373ffffffffffffffffffffffffffffffffffffffff160217905550602082015181600101556040820151816002019080519060200190610cea92919061178a565b506060820151816003019080519060200190610d0792919061178a565b509050505b6000341115610dc3577fefad97b41cb2d292c37d4d71b9cb2cf828360d136d6707aa37fb40709287aefa33600160008a73ffffffffffffffffffffffffffffffffffffffff1673ffffffffffffffffffffffffffffffffffffffff16815260200190815260200160002060010154604051808373ffffffffffffffffffffffffffffffffffffffff1673ffffffffffffffffffffffffffffffffffffffff1681526020018281526020019250505060405180910390a15b60048054806001018281610dd791906117d7565b9160005260206000209001600089909190916101000a81548173ffffffffffffffffffffffffffffffffffffffff021916908373ffffffffffffffffffffffffffffffffffffffff1602179055505060048054905097507f70845e07d4e4690ab26533ce1bad7106422a8395116601454954702b62d7ec30886040518082815260200191505060405180910390a15050505050505090565b610e77611803565b60008060008060008060008060009054906101000a900473ffffffffffffffffffffffffffffffffffffffff1673ffffffffffffffffffffffffffffffffffffffff163373ffffffffffffffffffffffffffffffffffffffff16141515610edd57600080fd5b600354600480549050141515610eef57fe5b6001600560006101000a81548160ff021916908315150217905550600354604051805910610f1a5750595b908082528060200260200182016040525097506000955042945060009350600093505b60048054905084101561101457610fa26001610f946064600488815481101515610f6357fe5b906000526020600020900160009054906101000a900473ffffffffffffffffffffffffffffffffffffffff166115ce565b6115b090919063ffffffff16565b8885815181101515610fb057fe5b9060200190602002018181525050610fe88885815181101515610fcf57fe5b90602001906020020151886115b090919063ffffffff16565b9650611005670de0b6b3a7640000876115b090919063ffffffff16565b95508380600101945050610f3d565b600093505b60048054905084101561107557611049888581518110151561103757fe5b90602001906020020151886003611673565b925082888581518110151561105a57fe5b90602001906020020181815250508380600101945050611019565b600093505b6004805490508410156115435761109c6103e8876116ac90919063ffffffff16565b91506110c888858151811015156110af57fe5b90602001906020020151836116c790919063ffffffff16565b9150600160006004868154811015156110dd57fe5b906000526020600020900160009054906101000a900473ffffffffffffffffffffffffffffffffffffffff1673ffffffffffffffffffffffffffffffffffffffff1673ffffffffffffffffffffffffffffffffffffffff16815260200190815260200160002060010154905061117682611168670de0b6b3a7640000846116fa90919063ffffffff16565b6115b090919063ffffffff16565b6001600060048781548110151561118957fe5b906000526020600020900160009054906101000a900473ffffffffffffffffffffffffffffffffffffffff1673ffffffffffffffffffffffffffffffffffffffff1673ffffffffffffffffffffffffffffffffffffffff168152602001908152602001600020600101819055506001600060048681548110151561120957fe5b906000526020600020900160009054906101000a900473ffffffffffffffffffffffffffffffffffffffff1673ffffffffffffffffffffffffffffffffffffffff1673ffffffffffffffffffffffffffffffffffffffff16815260200190815260200160002060020180548060010182816112849190611817565b916000526020600020900160008490919091505550600160006004868154811015156112ac57fe5b906000526020600020900160009054906101000a900473ffffffffffffffffffffffffffffffffffffffff1673ffffffffffffffffffffffffffffffffffffffff1673ffffffffffffffffffffffffffffffffffffffff16815260200190815260200160002060030180548060010182816113279190611817565b9160005260206000209001600087909190915055507fb1bdfebfc039c2bae9b5e824f109cbeaf0b70f1d42e623f68d005e22f9fb8e2e3360048681548110151561136d57fe5b906000526020600020900160009054906101000a900473ffffffffffffffffffffffffffffffffffffffff1684604051808473ffffffffffffffffffffffffffffffffffffffff1673ffffffffffffffffffffffffffffffffffffffff1681526020018373ffffffffffffffffffffffffffffffffffffffff1673ffffffffffffffffffffffffffffffffffffffff168152602001828152602001935050505060405180910390a17fefad97b41cb2d292c37d4d71b9cb2cf828360d136d6707aa37fb40709287aefa60048581548110151561144557fe5b906000526020600020900160009054906101000a900473ffffffffffffffffffffffffffffffffffffffff166001600060048881548110151561148457fe5b906000526020600020900160009054906101000a900473ffffffffffffffffffffffffffffffffffffffff1673ffffffffffffffffffffffffffffffffffffffff1673ffffffffffffffffffffffffffffffffffffffff16815260200190815260200160002060010154604051808373ffffffffffffffffffffffffffffffffffffffff1673ffffffffffffffffffffffffffffffffffffffff1681526020018281526020019250505060405180910390a1838060010194505061107a565b60006004816115529190611713565b506000600560006101000a81548160ff0219169083151502179055507f70845e07d4e4690ab26533ce1bad7106422a8395116601454954702b62d7ec3060006040518082815260200191505060405180910390a15050505050505050565b60008082840190508381101515156115c457fe5b8091505092915050565b6000804340836040518083600019166000191681526020018273ffffffffffffffffffffffffffffffffffffffff1673ffffffffffffffffffffffffffffffffffffffff166c0100000000000000000000000002815260140192505050604051809103902042604051808360001916600019168152602001828152602001925050506040518091039020600190049050838181151561166957fe5b0691505092915050565b600080600060018401600a0a86029150600a6005868481151561169257fe5b040181151561169d57fe5b04905080925050509392505050565b60008082848115156116ba57fe5b0490508091505092915050565b600080828402905060008414806116e857508284828115156116e557fe5b04145b15156116f057fe5b8091505092915050565b600082821115151561170857fe5b818303905092915050565b81548183558181151161173a578183600052602060002091820191016117399190611843565b5b505050565b608060405190810160405280600073ffffffffffffffffffffffffffffffffffffffff16815260200160008152602001611777611868565b8152602001611784611868565b81525090565b8280548282559060005260206000209081019282156117c6579160200282015b828111156117c55782518255916020019190600101906117aa565b5b5090506117d39190611843565b5090565b8154818355818115116117fe578183600052602060002091820191016117fd9190611843565b5b505050565b602060405190810160405280600081525090565b81548183558181151161183e5781836000526020600020918201910161183d9190611843565b5b505050565b61186591905b80821115611861576000816000905550600101611849565b5090565b90565b6020604051908101604052806000815250905600a165627a7a723058205c03910f068c6e1b4b3e6b9fac66cbeac7b71b32074fc5d1123e1742aa96c35d0029",
  "source": "pragma solidity ^0.4.14;\n\nimport './SafeMath.sol';\n\ncontract Gamble {\n    using SafeMath for uint;\n\n\n    // Gambler Info\n    struct Gambler {\n        address id;\n        uint balance;\n        uint[] historyResult;\n        uint[] historyTime;\n    }\n    address public owner;\n    mapping(address => Gambler) public gamblers;\n\n\n    uint totalGamePlayed = 0;\n    uint maxGamblerInGame = 2;\n    address[] currentGameGamblers;\n    bool inGame = false;\n\n    function Gamble() public {\n        owner = msg.sender;\n    }\n\n    // Event sending out the game result\n    event GameEndResult(address from, address to, uint amount);\n\n    // Event when number of gamer changed\n    event UpdateGamerNum(uint num);\n\n    // Event when balance changed\n    event UpdateGamerBalance(address to, uint num);\n\n    // Event when contract owner receive tips from other\n    event OwnerReceivedTips(address from, uint num);\n\n\n    modifier onlyOwner() {\n        require(msg.sender == owner);\n        _;\n    }\n\n    modifier gamblerExist(address gamblerId) {\n        var gambler = gamblers[gamblerId];\n        assert(gambler.id != 0x0);\n        _;\n    }\n\n    // Inorder to join game, number of current joined gamblers should be less than maxGamblerInGame\n    // Also a gambler should have a least 1 ether in the balance\n    modifier qualifiedJoin(address gamblerId) {\n        assert(currentGameGamblers.length < maxGamblerInGame);\n\n        var gambler = gamblers[gamblerId];\n        uint totalAmount = 0;\n        if (gambler.id != 0x0) {\n            totalAmount = gambler.balance.add(msg.value);\n        } else {\n            totalAmount = msg.value;\n        }\n        assert(totalAmount >= 1 ether);\n\n        // check if the gamer have already joined\n        for(uint i=0; i<currentGameGamblers.length; i++){\n            assert(currentGameGamblers[i] != msg.sender);\n        }\n        _;\n    }\n\n    // To join game, a gambler must have 1 ether in the balance or pay 1 ether\n    function joinGame() public payable qualifiedJoin(msg.sender) returns (uint totalGambler){\n        address gamblerId = msg.sender;\n        var gambler = gamblers[gamblerId];\n        // Gambler exist in our record\n        if (gambler.id != 0x0) {\n            gambler.balance = gambler.balance.add(msg.value);\n        } else{\n            // Create a new gambler\n            Gambler memory newGambler;\n            newGambler.id = gamblerId;\n            newGambler.balance = msg.value;\n            gamblers[gamblerId] = newGambler;\n        }\n        if (msg.value > 0){\n            UpdateGamerBalance(msg.sender, gamblers[gamblerId].balance);\n        }\n\n        currentGameGamblers.push(gamblerId);\n        totalGambler = currentGameGamblers.length;\n        UpdateGamerNum(totalGambler);\n    }\n\n    // Get gambler balance information\n    function checkGamblerBalance(address gamblerId) public constant gamblerExist(gamblerId) returns(uint balance){\n        balance = gamblers[gamblerId].balance;\n    }\n\n    // Check if gambler in game\n    function checkGamblerInGame(address gamblerId) public constant returns(bool joined){\n        joined = false;\n        for(uint i=0; i<currentGameGamblers.length; i++){\n            if(currentGameGamblers[i] == gamblerId){\n                joined = true;\n                break;\n            }\n        }\n\n    }\n\n    function getNumberOfGamer() public constant returns(uint numGamer){\n        numGamer = currentGameGamblers.length;\n    }\n\n    // A gambler can quit game anytime before game start\n    function quitGame() public returns(uint totalGambler){\n        assert(inGame == false);\n\n        uint idx = 0;\n        bool exist = false;\n        for(uint i=0; i<currentGameGamblers.length; i++){\n            if(currentGameGamblers[i] == msg.sender){\n                idx = i;\n                exist = true;\n                break;\n            }\n        }\n        assert(exist == true);\n\n        currentGameGamblers[idx] = currentGameGamblers[currentGameGamblers.length-1];\n        currentGameGamblers.length--;\n        totalGambler = currentGameGamblers.length;\n        UpdateGamerNum(totalGambler);\n    }\n\n    // A gambler is allowed to withdraw balance if he is not in a game\n    function withdraw() public gamblerExist(msg.sender) returns(uint amount){\n        bool exist = false;\n        for(uint i=0; i<currentGameGamblers.length; i++){\n            if(currentGameGamblers[i] == msg.sender){\n                exist = true;\n                break;\n            }\n        }\n        assert(exist == false);\n\n        amount = gamblers[msg.sender].balance;\n        gamblers[msg.sender].balance = 0;\n        msg.sender.transfer(amount);\n        UpdateGamerBalance(msg.sender, 0);\n    }\n\n    // tip the owner\n    function tipOwner() public payable{\n        owner.transfer(msg.value);\n        OwnerReceivedTips(msg.sender, msg.value);\n    }\n\n    // Get a random value\n    function _getRandomValue(uint upper, address gamblerId) private constant returns(uint rand){\n        uint _seed = uint(keccak256(keccak256(block.blockhash(block.number), gamblerId), now));\n        return _seed % upper;\n    }\n\n    // Calculate percent value\n    function _percent(uint numerator, uint denominator, uint precision) private constant returns(uint quotient) {\n         // caution, check safe-to-multiply here\n        uint _numerator  = numerator * 10 ** (precision+1);\n        // with rounding of last digit\n        uint _quotient =  ((_numerator / denominator) + 5) / 10;\n        return ( _quotient);\n    }\n\n    // Start a Game\n    function startGame() public onlyOwner{\n        // Game can be start only when number of gamblers equal to maxGamblerInGame\n        assert(currentGameGamblers.length == maxGamblerInGame);\n\n        inGame = true;\n\n        uint[] memory gamblerRandVal = new uint[](maxGamblerInGame);\n        uint totalRandVal;\n        uint totalMoney = 0;\n        uint gameTime = now;\n        uint i = 0;\n        // Get a random value for each gamblers\n        for(i=0; i<currentGameGamblers.length; i++){\n            gamblerRandVal[i] = _getRandomValue(100, currentGameGamblers[i]).add(1);\n            totalRandVal = totalRandVal.add(gamblerRandVal[i]);\n            totalMoney = totalMoney.add(1 ether);\n        }\n\n        // Convert to percent value \n        for(i=0; i<currentGameGamblers.length; i++){\n            uint resultPercent = _percent(gamblerRandVal[i], totalRandVal, 3);\n            gamblerRandVal[i] = resultPercent;\n        }\n\n        // Split the money and record the game\n        for(i=0; i<currentGameGamblers.length; i++){\n            uint resultMoney = totalMoney.div(1000);\n            resultMoney = resultMoney.mul(gamblerRandVal[i]);\n            uint currentBalance = gamblers[currentGameGamblers[i]].balance;\n            gamblers[currentGameGamblers[i]].balance = currentBalance.sub(1 ether).add(resultMoney);\n            gamblers[currentGameGamblers[i]].historyResult.push(resultMoney);\n            gamblers[currentGameGamblers[i]].historyTime.push(gameTime);\n            // Send out the event for game result per user\n            GameEndResult(msg.sender, currentGameGamblers[i], resultMoney);\n            UpdateGamerBalance(currentGameGamblers[i], gamblers[currentGameGamblers[i]].balance);\n        }\n\n        // Clean the list and end the game\n        currentGameGamblers.length = 0;\n        inGame = false;\n        UpdateGamerNum(0);\n\n    }\n    \n}",
  "sourcePath": "/Users/joeycao/DWRS/contracts/Gamble.sol",
  "compiler": {
    "name": "solc",
    "version": "0.4.19+commit.c4cbbb05.Emscripten.clang"
  },
  "schemaVersion": "1.0.1",
  "updatedAt": "2018-02-24T22:22:13.241Z"
}